{
  "contractName": "Voting",
  "abi": [
    {
      "inputs": [],
      "stateMutability": "nonpayable",
      "type": "constructor"
    },
    {
      "inputs": [],
      "name": "admin",
      "outputs": [
        {
          "internalType": "address",
          "name": "",
          "type": "address"
        }
      ],
      "stateMutability": "view",
      "type": "function",
      "constant": true
    },
    {
      "inputs": [
        {
          "internalType": "address",
          "name": "",
          "type": "address"
        }
      ],
      "name": "voters",
      "outputs": [
        {
          "internalType": "bool",
          "name": "",
          "type": "bool"
        }
      ],
      "stateMutability": "view",
      "type": "function",
      "constant": true
    },
    {
      "inputs": [
        {
          "internalType": "address[]",
          "name": "_voters",
          "type": "address[]"
        }
      ],
      "name": "addRegisteredVoters",
      "outputs": [],
      "stateMutability": "nonpayable",
      "type": "function"
    },
    {
      "inputs": [
        {
          "internalType": "string",
          "name": "_name",
          "type": "string"
        },
        {
          "internalType": "string[]",
          "name": "_choices",
          "type": "string[]"
        },
        {
          "internalType": "uint256",
          "name": "duration",
          "type": "uint256"
        }
      ],
      "name": "createBallot",
      "outputs": [],
      "stateMutability": "nonpayable",
      "type": "function"
    },
    {
      "inputs": [
        {
          "internalType": "uint256",
          "name": "_ballotId",
          "type": "uint256"
        },
        {
          "internalType": "uint256",
          "name": "_choiceId",
          "type": "uint256"
        }
      ],
      "name": "vote",
      "outputs": [],
      "stateMutability": "nonpayable",
      "type": "function"
    }
  ],
  "bytecode": "0x608060405234801561001057600080fd5b5060038054600160a060020a0319163317905561096e806100326000396000f3fe608060405234801561001057600080fd5b5060043610610073577c0100000000000000000000000000000000000000000000000000000000600035046320faae8e811461007857806374a5248a1461008d578063a3ec138d146100a0578063b384abef146100c9578063f851a440146100dc575b600080fd5b61008b61008636600461062c565b6100f1565b005b61008b61009b3660046105bd565b61025d565b6100b36100ae366004610582565b61032b565b6040516100c09190610738565b60405180910390f35b61008b6100d73660046106f6565b610340565b6100e4610462565b6040516100c09190610717565b60035473ffffffffffffffffffffffffffffffffffffffff1633146101345760405160e560020a62461bcd02815260040161012b906107d7565b60405180910390fd5b6002546000818152600160208181526040909220928355855161015d939091019186019061047e565b506101688142610895565b6002546000908152600160205260408120600301919091555b82518110156102425760016000600254815260200190815260200160002060020160405180606001604052808381526020018584815181106101d65760e060020a634e487b7102600052603260045260246000fd5b602090810291909101810151825260009181018290528354600181810186559483529181902083516003909302019182558281015180519394929361022293850192919091019061047e565b50604082015181600201555050808061023a906108eb565b915050610181565b5060028054906000610253836108eb565b9190505550505050565b60035473ffffffffffffffffffffffffffffffffffffffff1633146102975760405160e560020a62461bcd02815260040161012b906107d7565b60005b818110156103265760016000808585858181106102ca5760e060020a634e487b7102600052603260045260246000fd5b90506020020160208101906102df9190610582565b73ffffffffffffffffffffffffffffffffffffffff1681526020810191909152604001600020805460ff19169115159190911790558061031e816108eb565b91505061029a565b505050565b60006020819052908152604090205460ff1681565b3360009081526020819052604090205460ff1615156001146103775760405160e560020a62461bcd02815260040161012b90610834565b33600090815260046020908152604080832085845290915290205460ff16156103b55760405160e560020a62461bcd02815260040161012b906107a0565b60008281526001602052604090206003015442106103e85760405160e560020a62461bcd02815260040161012b90610743565b3360009081526004602090815260408083208584528252808320805460ff19166001908117909155909152902060020180548290811061043b5760e060020a634e487b7102600052603260045260246000fd5b600091825260208220600260039092020101805491610459836108eb565b91905055505050565b60035473ffffffffffffffffffffffffffffffffffffffff1681565b82805461048a906108ad565b90600052602060002090601f0160209004810192826104ac57600085556104f2565b82601f106104c557805160ff19168380011785556104f2565b828001600101855582156104f2579182015b828111156104f25782518255916020019190600101906104d7565b506104fe929150610502565b5090565b5b808211156104fe5760008155600101610503565b600082601f830112610527578081fd5b813567ffffffffffffffff8111156105415761054161091f565b610554601f8201601f191660200161086b565b818152846020838601011115610568578283fd5b816020850160208301379081016020019190915292915050565b600060208284031215610593578081fd5b813573ffffffffffffffffffffffffffffffffffffffff811681146105b6578182fd5b9392505050565b600080602083850312156105cf578081fd5b823567ffffffffffffffff808211156105e6578283fd5b818501915085601f8301126105f9578283fd5b813581811115610607578384fd5b866020808302850101111561061a578384fd5b60209290920196919550909350505050565b600080600060608486031215610640578081fd5b833567ffffffffffffffff80821115610657578283fd5b61066387838801610517565b9450602091508186013581811115610679578384fd5b8601601f81018813610689578384fd5b80358281111561069b5761069b61091f565b6106a8848583020161086b565b8181528481019350828501865b838110156106de576106cc8c888435880101610517565b865294860194908601906001016106b5565b50508096505050505050604084013590509250925092565b60008060408385031215610708578182fd5b50508035926020909101359150565b73ffffffffffffffffffffffffffffffffffffffff91909116815260200190565b901515815260200190565b60208082526022908201527f43616e206f6e6c7920766f7465207768696c652062616c6c6f74206973206f7060408201527f656e000000000000000000000000000000000000000000000000000000000000606082015260800190565b6020808252601e908201527f566f7465722063616e20766f7465206f6e6365207065722062616c6c6f740000604082015260600190565b60208082526022908201527f4f6e6c792061646d696e2063616e20616363657373207468697320666561747560408201527f7265000000000000000000000000000000000000000000000000000000000000606082015260800190565b60208082526014908201527f4f6e6c7920766f746572732063616e20766f7465000000000000000000000000604082015260600190565b60405181810167ffffffffffffffff8111828210171561088d5761088d61091f565b604052919050565b600082198211156108a8576108a8610906565b500190565b6002810460018216806108c157607f821691505b602082108114156108e55760e060020a634e487b7102600052602260045260246000fd5b50919050565b60006000198214156108ff576108ff610906565b5060010190565b60e060020a634e487b7102600052601160045260246000fd5b60e060020a634e487b7102600052604160045260246000fdfea2646970667358221220f849a1a9e45f1936b5ad0c42cb4cd9bcc91266a10db0b474e2e22538422318cd64736f6c63430008000033",
  "immutableReferences": {},
  "source": "// SPDX-License-Identifier: MIT\npragma solidity ^0.8.0;\n\ncontract Voting {\n    mapping(address => bool) public voters;\n    struct Choice {\n        uint256 id;\n        string name;\n        uint256 votes;\n    }\n    struct Ballot {\n        uint256 id;\n        string name;\n        Choice[] choices;\n        uint256 timer;\n    }\n\n    mapping(uint256 => Ballot) ballots;\n    uint256 nextBallotId;\n    address public admin;\n    mapping(address => mapping(uint256 => bool)) votes;\n\n    constructor() {\n        admin = msg.sender;\n    }\n\n    modifier onlyAdmin() {\n        require(msg.sender == admin, \"Only admin can access this feature\");\n        _;\n    }\n\n    function addRegisteredVoters(address[] calldata _voters)\n        external\n        onlyAdmin\n    {\n        for (uint256 i = 0; i < _voters.length; i++) {\n            voters[_voters[i]] = true;\n        }\n    }\n\n    function createBallot(\n        string memory _name,\n        string[] memory _choices,\n        uint256 duration\n    ) public onlyAdmin {\n        ballots[nextBallotId].id = nextBallotId;\n        ballots[nextBallotId].name = _name;\n        ballots[nextBallotId].timer = block.timestamp + duration;\n        for (uint256 i = 0; i < _choices.length; i++) {\n            ballots[nextBallotId].choices.push(Choice(i, _choices[i], 0));\n        }\n        nextBallotId++;\n    }\n\n    function vote(uint256 _ballotId, uint256 _choiceId) external {\n        require(voters[msg.sender] == true, \"Only voters can vote\");\n        require(\n            votes[msg.sender][_ballotId] == false,\n            \"Voter can vote once per ballot\"\n        );\n        require(\n            block.timestamp < ballots[_ballotId].timer,\n            \"Can only vote while ballot is open\"\n        );\n        votes[msg.sender][_ballotId] = true;\n        ballots[_ballotId].choices[_choiceId].votes++;\n    }\n}\n",
  "sourcePath": "/Users/jasonha/Desktop/demos/smart_contracts/voting/smart_contract/contracts/Voting.sol",
  "compiler": {
    "name": "solc",
    "version": "0.8.0+commit.c7dfd78e.Emscripten.clang"
  },
  "schemaVersion": "3.4.5",
  "updatedAt": "2022-03-01T01:57:28.418Z",
  "networkType": "ethereum",
  "devdoc": {
    "kind": "dev",
    "methods": {},
    "version": 1
  },
  "userdoc": {
    "kind": "user",
    "methods": {},
    "version": 1
  }
}